S01B00005B6C77746F6F6C7320342E31335D2062617369632E61736DA1
S11380007E800B10DE06BD87CC201310CE7ECC10F4
S1138010DF06BD87CCCC0149DD00DD02DD04BD8176
S1138020358E8079BD812E10DE060F13BD81359EFD
S1138030009F088E00009F0C0D132605863ABD870D
S1138040A4BD8188BD82E2240E292BBD8253810404
S113805027E1BD820520D034109E029C04351027F0
S1138060037E8155C30000270D340683270F350690
S113807022048D1020BD7E814C54494E5920563126
S11380802E3337043406BD82539F0EA6609E089C8F
S113809002270510A30024029E00BD83BE9F08256D
S11380A0229F0A3002A680810426FA9C02270EA68B
S11380B0809F109E0AA7809F0A9E1020EE9E0A9F12
S11380C0029F049E0EC6FF5CA680810426F95D26ED
S11380D003326239301FCB04301F5AA60081202797
S11380E0F78604A7014F9E029F10D302DD02DD0430
S11380F0BD835A24079F029F047E81449E029F0AE7
S11381009E109C08270AA6829F109E0AA78220EE32
S113811035069E08ED819F109E0EA6809F0E9E1030
S1138120A7809F10810426F039BD87A43001A600E2
S1138130810426F5398E813D8DF40F12390D0A7FA5
S1138140000000048D26534F525259048D1E574887
S11381504154203F048D15484F57203F048D0D4254
S11381605245414B048D0553544F50048DC7860727
S1138170BD87A4DC0CBD86588620BD87A435108D30
S1138180AD8DB27E80278DAD8E0100BD879A812092
S11381902514817F27F58C0148260486072002A731
S11381A080BD87A420E581082724811827D8810A67
S11381B02731810D26D50D132705BD87A42007344B
S11381C010BD813535108604A7008E0100398C015D
S11381D00027B8301F8608BD87A48620BD87A486E3
S11381E00820BE1A01061320B830018D66810426CA
S11381F0F8BD852B960C9A0D27149C0226037E81CC
S113820055EC81DD0CBD87968D0825033406397E37
S1138210853C8D3F9F088E8731A680810426059E6C
S1138220081A01399F109E089F0E9E0EA100261564
S113823030019F0E9E10A6809F10810426ECEC0056
S11382409E0E1CFE399E10A680810426FA30022060
S1138250C83001A600812027F8398D1A24228141D3
S113826025118146220D80371CFE39814125048168
S11382705A230D1A0139813025F9813922F58030CC
S11382801CFE398DCE8DE425121F89A6018DDC24B8
S1138290E23001C041584FD3061CFE39BD850A3473
S11382A006BD8253812C270981291A0127157E8155
S11382B04C3001BD843D3402BD82538129350226F0
S11382C0ED1CFE30019F08ADF19E081CFE39BD82F5
S11382D053812D260D30018D092506405082001C46
S11382E0FC39BD8253BD8276242F81241A01266075
S11382F030016FE26FE2A600BD825A254F3001348F
S1138300103402EC6385F0264A58495849584958B4
S113831049EBE0ED62351020DD300134026FE2A656
S113832000BD82762526300134103402EC635849AE
S113833029215849291DE363291958492915EB6056
S11383408900290FED633261351020D335061CFEF8
S11383501CFD39AE6132651A033910DF0ADC0A8369
S11383600030930439BD84F734063410E6F802353E
S11383701032624F39BD84F73406BD8253813D27E4
S1138380037E814C3001BD843DBD852B3410E7F85C
S113839002351032627E81F4BD82539F088E83A819
S11383A0BD8219250234063955535204829C504526
S11383B0454B0483654D454D04835A049E009C023D
S11383C026031A033910A30026031CFC3924051ABA
S11383D0011CFD393402860430013001A10026FA63
S11383E03502300120D88D5534065FBD8253813D5E
S11383F02723813C261030015CBD8253813E261127
S11384003001CB042013813E265F3001CB04BD82B2
S113841053813D26043001CB0234048D203410A353
S1138420631FA8441F8948483404ABE0840626012E
S11384304C5FA4622701534F35103263396FE26FEA
S1138440E2BD8253812D2717812B260230018D1C1A
S1138450E360ED60BD8253812B27F1812D260A3024
S1138460018D094050820020E7350639BD84DF3490
S113847006BD8253812A2748812F270335063930C8
S1138480018D5C341030623406A800BD851E306056
S1138490BD851E3402861134024F5FA3622406E3B5
S11384A0621CFE20021A016967696659496A6026DE
S11384B0EAA66132644D2A0430628D66351020B11B
S11384C030018D1B3404E6623DA661E761E6603D40
S11384D0A662E76235043DAB60AB61ED602092BDFE
S11384E08283250934101F01EC00351039BD82E266
S11384F024FABD839824F58D113402BD8253812959
S1138500350226033001397E814CBD835A24037E13
S11385108144BD8253812826EE30017E843D6D0066
S11385202A086000600124026A00393402BD8253C3
S1138530810427037E814C3001350239BD828324B6
S1138540037E814C3406BD8253813D27037E814CDA
S11385503001BD843D8DD49F083510ED009E087E0A
S113856081F4BD83E65D27037E82057E81EBBD84B5
S11385703D8DB8BD83BC250F7E8201BD843D8DAB8E
S11385809F08BD83BC24037E8155BD835A24037E8A
S11385908144DC083406DC0C3406BD82013506DD7A
S11385A00C35107E81F4BD8253812C2736813B2704
S11385B03D810427258122260630018D422009BDF4
S11385C0843D34108D473510BD8253812C2714818E
S11385D03B271B810427037E814C3410BD81353534
S11385E0102014C6078620BD87A4D51226F73001B3
S11385F0BD8253810426B230017E81F4BD87A4A6D6
S113860080810426037E814C812226F0394D2A0D77
S1138610405082003402862DBD87A435028E864CDC
S1138620300210A30024058C865626F40F1010A3E4
S1138630002506A3000C1020F5340286309B10BDE3
S113864087A435028C86562704300220DF39271090
S113865003E80064000A00018E865020CFBD8283A7
S1138660253C34069F08863FBD87A4BD8188BD8212
S113867053810427F1BD82CE240B8E86B2BD812E98
S1138680BD813520E19F0E3510ED009E08BD82535B
S1138690812C27037E81F13001BD828324037E81F6
S11386A04C340634109E0EBD8253812C26C03001FA
S11386B020BC52452D454E544552049E0686346FC7
S11386C0804A26FB9E007E81FABD82E224084F5F29
S11386D0DD08867F2017DD08BD8253812C27049690
S11386E008200A3001BD82E224037E814CBD852B23
S11386F03406DC089F08BD83BC9C0227283506107D
S1138700A30025283406EC813410BD865835108624
S113871020BD87A4BD812E30013410BD81353510B4
S1138720BD879620D432628603BD87A49E087E81CD
S1138730F44C455404853C4946048562474F544FE4
S113874004856E474F53554204857B524554555218
S11387504E04852B504F4B450483755052494E545B
S11387600485A6494E50555404865D52454D0481F6
S1138770EB53544F50048165454E44048165525572
S11387804E0486BB4C4953540486C94E4557048055
S1138790153F0485A6048D2A27098D0D8103260320
S11387A07E815D390C127E87B38D1727FCB6E000FD
S11387B0847F393402B6E005852027F93502B7E015
S11087C000393402B6E0058501350239396F
S503007D7F
S90380007C
