S01E00005B6C77746F6F6C7320342E31375D206D656D70616765722E61736D4E
S11380007E80593404F6E005C520121227F7B7E044
S1138010003504393404F6E005C501121227F7B619
S1138020E0003504393402A6802706BD80037E8033
S1138030273502393402340244444444810923027A
S11380408B078B30BD80033502840F810923028B9B
S1138050078B30BD800335023910CEDFE01A50861D
S113806000B7E8004FB7E001B7E0028683B7E0034A
S11380708604B7E0048630B7E0004FB7E00186031A
S1138080B7E0038602B7E8008E8180BD802586FFB5
S113809097008E81EDBD8025BD80348E81FDBD802D
S11380A02596008E81DDBD8025BD80348E81FDBD89
S11380B0802581FF26568600B7E8008E8166BD8044
S11380C02586AA97008E81EDBD8025BD80348E81E2
S11380D0FDBD802596008E81DDBD8025BD80348E5A
S11380E081FDBD802581AA26238602B7E8008E8102
S11380F080BD802596008E81DDBD8025BD803481C4
S1138100FF26098E81FDBD80257E81158E819ABD55
S113811080257E81635FC1012733C1202433F7E8C2
S1138120008E81BABD80251F98BD8034860DBD8028
S1138130038E000086AAA784A68481AA261C8655DD
S1138140A784A680815526128C800026E75C7E8158
S1138150168E81CABD80257E81638E81AABD80254D
S11381607E81637E81635061676520726567697390
S11381707465722073657420746F20302E0D0A00AC
S113818050616765207265676973746572207365F1
S11381907420746F20322E0D0A00506167696E6777
S11381A0206572726F72210D0A004D656D6F7279D0
S11381B0206572726F72210D0A00436865636B69F2
S11381C06E672070616765202400446F6E653A20F5
S11381D06D656D6F7279206F6B210D0A00446174B7
S11381E06120726561642061733A202400446174E3
S11381F061207772697474656E3A2024000D0A0058
S5030020DC
S9030000FC
